{
  "contractName": "Bank",
  "abi": [
    {
      "inputs": [
        {
          "name": "amount",
          "type": "uint256"
        }
      ],
      "payable": false,
      "stateMutability": "nonpayable",
      "type": "constructor"
    },
    {
      "payable": true,
      "stateMutability": "payable",
      "type": "fallback"
    },
    {
      "anonymous": false,
      "inputs": [
        {
          "indexed": false,
          "name": "",
          "type": "address"
        }
      ],
      "name": "SenderLogger",
      "type": "event"
    },
    {
      "anonymous": false,
      "inputs": [
        {
          "indexed": false,
          "name": "",
          "type": "uint256"
        }
      ],
      "name": "ValueLogger",
      "type": "event"
    },
    {
      "constant": false,
      "inputs": [
        {
          "name": "amount",
          "type": "uint256"
        }
      ],
      "name": "deposit",
      "outputs": [],
      "payable": false,
      "stateMutability": "nonpayable",
      "type": "function"
    },
    {
      "constant": true,
      "inputs": [],
      "name": "balance",
      "outputs": [
        {
          "name": "",
          "type": "uint256"
        }
      ],
      "payable": false,
      "stateMutability": "view",
      "type": "function"
    },
    {
      "constant": false,
      "inputs": [
        {
          "name": "amount",
          "type": "uint256"
        }
      ],
      "name": "checkValue",
      "outputs": [
        {
          "name": "",
          "type": "bool"
        }
      ],
      "payable": false,
      "stateMutability": "nonpayable",
      "type": "function"
    },
    {
      "constant": false,
      "inputs": [],
      "name": "loan",
      "outputs": [
        {
          "name": "",
          "type": "bool"
        }
      ],
      "payable": false,
      "stateMutability": "nonpayable",
      "type": "function"
    },
    {
      "constant": false,
      "inputs": [
        {
          "name": "amount",
          "type": "uint256"
        }
      ],
      "name": "withdraw",
      "outputs": [],
      "payable": false,
      "stateMutability": "nonpayable",
      "type": "function"
    }
  ],
  "bytecode": "0x608060405234801561001057600080fd5b506040516020806104698339810180604052602081101561003057600080fd5b81019080805190602001909291905050508060008190555033600160006101000a81548173ffffffffffffffffffffffffffffffffffffffff021916908373ffffffffffffffffffffffffffffffffffffffff160217905550506103d0806100996000396000f3fe60806040526004361061006d576000357c0100000000000000000000000000000000000000000000000000000000900463ffffffff16806318db62fb146101725780632e1a7d4d146101c5578063b69ef8a814610200578063b6b55f251461022b578063d285b7b414610266575b3373ffffffffffffffffffffffffffffffffffffffff16600160009054906101000a900473ffffffffffffffffffffffffffffffffffffffff1673ffffffffffffffffffffffffffffffffffffffff161415156100c957600080fd5b600134101515156100d657fe5b7f53f3cb7e2915e37456381a51d56ac61aa8c1afd56e5c1f055dd1b4946b9a29cc33604051808273ffffffffffffffffffffffffffffffffffffffff1673ffffffffffffffffffffffffffffffffffffffff16815260200191505060405180910390a17f0a51b1385c26fe73e32df22a7afebd5c8b7949dcd7c0c96be29b5e6d2b6de1c5346040518082815260200191505060405180910390a1005b34801561017e57600080fd5b506101ab6004803603602081101561019557600080fd5b8101908080359060200190929190505050610295565b604051808215151515815260200191505060405180910390f35b3480156101d157600080fd5b506101fe600480360360208110156101e857600080fd5b81019080803590602001909291905050506102a4565b005b34801561020c57600080fd5b50610215610321565b6040518082815260200191505060405180910390f35b34801561023757600080fd5b506102646004803603602081101561024e57600080fd5b810190808035906020019092919050505061032a565b005b34801561027257600080fd5b5061027b610398565b604051808215151515815260200191505060405180910390f35b60008160005410159050919050565b3373ffffffffffffffffffffffffffffffffffffffff16600160009054906101000a900473ffffffffffffffffffffffffffffffffffffffff1673ffffffffffffffffffffffffffffffffffffffff1614151561030057600080fd5b61030981610295565b1561031e578060008082825403925050819055505b50565b60008054905090565b3373ffffffffffffffffffffffffffffffffffffffff16600160009054906101000a900473ffffffffffffffffffffffffffffffffffffffff1673ffffffffffffffffffffffffffffffffffffffff1614151561038657600080fd5b80600080828254019250508190555050565b6000806000541190509056fea165627a7a723058204e95dcae51e9ecd909ea5d292bde98e6031d7829aebce68ae71f9484c034bd440029",
  "source": "pragma solidity ^0.5.0;\r\n\r\nimport \"./MyInterface.sol\";  \r\n\r\ncontract Bank is MyInterface{\r\n    //uint internal myInternalValue;//acces din ContractulMeu, dar nu din exterior\r\n    uint private value;\r\n    address private owner; // owner of the contract\r\n    \r\n    event SenderLogger(address); //logging\r\n    event ValueLogger(uint);  //logging\r\n    \r\n    constructor(uint amount) public{\r\n        value = amount;\r\n        owner = msg.sender;\r\n    }\r\n    \r\n    modifier ownerFunc{//\r\n        require (owner == msg.sender); // doar daca este proprietarul \r\n        _; //executarea functiei\r\n    }\r\n    \r\n    modifier validValue {\r\n        assert(msg.value >= 1); //nr de wei trimisi cu mesajul\r\n        _;\r\n    }\r\n    \r\n    function () external payable ownerFunc validValue{\r\n        emit SenderLogger(msg.sender); //invocare eveniment\r\n        emit ValueLogger(msg.value);\r\n    }\r\n    \r\n    function deposit (uint amount) public ownerFunc {\r\n        value += amount;\r\n    }\r\n    \r\n    \r\n    function balance() public view returns (uint){\r\n        return value;\r\n    }\r\n    \r\n    function checkValue (uint amount) public returns (bool){\r\n        //require(amount > 0);\r\n        return value >= amount;\r\n    }\r\n    \r\n    function loan() public returns (bool){\r\n        return value > 0 ;\r\n    }\r\n    \r\n    function withdraw (uint amount) public ownerFunc{\r\n        if (checkValue(amount)) {\r\n            value -= amount;\r\n        }\r\n    }\r\n}",
  "sourcePath": "D:\\Facultate\\Blockchain\\TruffleDemo\\contracts\\Bank.sol",
  "compiler": {
    "name": "solc",
    "version": "0.5.0+commit.1d4f565a.Emscripten.clang"
  },
  "schemaVersion": "3.0.6",
  "updatedAt": "2019-04-01T15:03:06.071Z",
  "devdoc": {
    "methods": {}
  },
  "userdoc": {
    "methods": {}
  }
}