{
  "contractName": "MyContract",
  "abi": [
    {
      "constant": false,
      "inputs": [
        {
          "name": "amount",
          "type": "uint256"
        }
      ],
      "name": "checkValue",
      "outputs": [
        {
          "name": "",
          "type": "bool"
        }
      ],
      "payable": false,
      "stateMutability": "nonpayable",
      "type": "function",
      "signature": "0x18db62fb"
    },
    {
      "constant": false,
      "inputs": [
        {
          "name": "amount",
          "type": "uint256"
        }
      ],
      "name": "withdraw",
      "outputs": [],
      "payable": false,
      "stateMutability": "nonpayable",
      "type": "function",
      "signature": "0x2e1a7d4d"
    },
    {
      "constant": true,
      "inputs": [],
      "name": "balance",
      "outputs": [
        {
          "name": "",
          "type": "uint256"
        }
      ],
      "payable": false,
      "stateMutability": "view",
      "type": "function",
      "signature": "0xb69ef8a8"
    },
    {
      "constant": false,
      "inputs": [
        {
          "name": "amount",
          "type": "uint256"
        }
      ],
      "name": "deposit",
      "outputs": [],
      "payable": false,
      "stateMutability": "nonpayable",
      "type": "function",
      "signature": "0xb6b55f25"
    },
    {
      "constant": false,
      "inputs": [],
      "name": "loan",
      "outputs": [
        {
          "name": "",
          "type": "bool"
        }
      ],
      "payable": false,
      "stateMutability": "nonpayable",
      "type": "function",
      "signature": "0xd285b7b4"
    },
    {
      "payable": true,
      "stateMutability": "payable",
      "type": "fallback"
    },
    {
      "anonymous": false,
      "inputs": [
        {
          "indexed": false,
          "name": "",
          "type": "address"
        }
      ],
      "name": "SenderLogger",
      "type": "event",
      "signature": "0x53f3cb7e2915e37456381a51d56ac61aa8c1afd56e5c1f055dd1b4946b9a29cc"
    },
    {
      "anonymous": false,
      "inputs": [
        {
          "indexed": false,
          "name": "",
          "type": "uint256"
        }
      ],
      "name": "ValueLogger",
      "type": "event",
      "signature": "0x0a51b1385c26fe73e32df22a7afebd5c8b7949dcd7c0c96be29b5e6d2b6de1c5"
    },
    {
      "constant": false,
      "inputs": [
        {
          "name": "newName",
          "type": "string"
        }
      ],
      "name": "setName",
      "outputs": [],
      "payable": false,
      "stateMutability": "nonpayable",
      "type": "function",
      "signature": "0xc47f0027"
    },
    {
      "constant": true,
      "inputs": [],
      "name": "getName",
      "outputs": [
        {
          "name": "",
          "type": "string"
        }
      ],
      "payable": false,
      "stateMutability": "view",
      "type": "function",
      "signature": "0x17d7de7c"
    },
    {
      "constant": false,
      "inputs": [
        {
          "name": "newAge",
          "type": "uint256"
        }
      ],
      "name": "setAge",
      "outputs": [],
      "payable": false,
      "stateMutability": "nonpayable",
      "type": "function",
      "signature": "0xd5dcf127"
    },
    {
      "constant": true,
      "inputs": [],
      "name": "getAge",
      "outputs": [
        {
          "name": "",
          "type": "uint256"
        }
      ],
      "payable": false,
      "stateMutability": "view",
      "type": "function",
      "signature": "0x967e6e65"
    }
  ],
  "bytecode": "0x6080604052600a8060008190555033600160006101000a81548173ffffffffffffffffffffffffffffffffffffffff021916908373ffffffffffffffffffffffffffffffffffffffff1602179055505061072f8061005e6000396000f3fe608060405260043610610099576000357c0100000000000000000000000000000000000000000000000000000000900463ffffffff16806317d7de7c1461019e57806318db62fb1461022e5780632e1a7d4d14610281578063967e6e65146102bc578063b69ef8a8146102e7578063b6b55f2514610312578063c47f00271461034d578063d285b7b414610415578063d5dcf12714610444575b3373ffffffffffffffffffffffffffffffffffffffff16600160009054906101000a900473ffffffffffffffffffffffffffffffffffffffff1673ffffffffffffffffffffffffffffffffffffffff161415156100f557600080fd5b6001341015151561010257fe5b7f53f3cb7e2915e37456381a51d56ac61aa8c1afd56e5c1f055dd1b4946b9a29cc33604051808273ffffffffffffffffffffffffffffffffffffffff1673ffffffffffffffffffffffffffffffffffffffff16815260200191505060405180910390a17f0a51b1385c26fe73e32df22a7afebd5c8b7949dcd7c0c96be29b5e6d2b6de1c5346040518082815260200191505060405180910390a1005b3480156101aa57600080fd5b506101b361047f565b6040518080602001828103825283818151815260200191508051906020019080838360005b838110156101f35780820151818401526020810190506101d8565b50505050905090810190601f1680156102205780820380516001836020036101000a031916815260200191505b509250505060405180910390f35b34801561023a57600080fd5b506102676004803603602081101561025157600080fd5b8101908080359060200190929190505050610521565b604051808215151515815260200191505060405180910390f35b34801561028d57600080fd5b506102ba600480360360208110156102a457600080fd5b8101908080359060200190929190505050610530565b005b3480156102c857600080fd5b506102d16105ad565b6040518082815260200191505060405180910390f35b3480156102f357600080fd5b506102fc6105b7565b6040518082815260200191505060405180910390f35b34801561031e57600080fd5b5061034b6004803603602081101561033557600080fd5b81019080803590602001909291905050506105c0565b005b34801561035957600080fd5b506104136004803603602081101561037057600080fd5b810190808035906020019064010000000081111561038d57600080fd5b82018360208201111561039f57600080fd5b803590602001918460018302840111640100000000831117156103c157600080fd5b91908080601f016020809104026020016040519081016040528093929190818152602001838380828437600081840152601f19601f82011690508083019250505050505050919291929050505061062e565b005b34801561042157600080fd5b5061042a610648565b604051808215151515815260200191505060405180910390f35b34801561045057600080fd5b5061047d6004803603602081101561046757600080fd5b8101908080359060200190929190505050610654565b005b606060028054600181600116156101000203166002900480601f0160208091040260200160405190810160405280929190818152602001828054600181600116156101000203166002900480156105175780601f106104ec57610100808354040283529160200191610517565b820191906000526020600020905b8154815290600101906020018083116104fa57829003601f168201915b5050505050905090565b60008160005410159050919050565b3373ffffffffffffffffffffffffffffffffffffffff16600160009054906101000a900473ffffffffffffffffffffffffffffffffffffffff1673ffffffffffffffffffffffffffffffffffffffff1614151561058c57600080fd5b61059581610521565b156105aa578060008082825403925050819055505b50565b6000600354905090565b60008054905090565b3373ffffffffffffffffffffffffffffffffffffffff16600160009054906101000a900473ffffffffffffffffffffffffffffffffffffffff1673ffffffffffffffffffffffffffffffffffffffff1614151561061c57600080fd5b80600080828254019250508190555050565b806002908051906020019061064492919061065e565b5050565b60008060005411905090565b8060038190555050565b828054600181600116156101000203166002900490600052602060002090601f016020900481019282601f1061069f57805160ff19168380011785556106cd565b828001600101855582156106cd579182015b828111156106cc5782518255916020019190600101906106b1565b5b5090506106da91906106de565b5090565b61070091905b808211156106fc5760008160009055506001016106e4565b5090565b9056fea165627a7a723058207383396c800c8f2f897fbff82b13bfbbbfdb4ce7c7912580f0d239e84c4718670029",
  "source": "pragma solidity ^0.5.0;\r\n\r\nimport \"./Bank.sol\"; \r\n\r\ncontract MyContract is Bank(10){\r\n    string private name;\r\n    uint private age;\r\n    \r\n    function setName (string memory newName) public{\r\n    name = newName;\r\n    }\r\n    \r\n    function getName() public view returns (string memory)  {\r\n    return name;\r\n    }\r\n    \r\n    function setAge (uint newAge) public{\r\n        age = newAge;\r\n    }\r\n    \r\n    function getAge() public view returns (uint) {\r\n        return age;\r\n    }\r\n    \r\n}",
  "sourcePath": "D:/Facultate/Blockchain/TruffleDemo/contracts/MyContract.sol",
  "compiler": {
    "name": "solc",
    "version": "0.5.0+commit.1d4f565a.Emscripten.clang"
  },
  "schemaVersion": "3.0.6",
  "updatedAt": "2019-04-01T14:19:54.660Z",
  "devdoc": {
    "methods": {}
  },
  "userdoc": {
    "methods": {}
  }
}